:10000000D8220020BD14000025650000A9140000BE
:10001000A9140000A9140000A9140000A9140000EC
:10002000000000000000000000000000B11500000A
:10003000A91400000000000049150000A9140000E8
:1000400059170000591700005917000059170000F0
:1000500059170000591700005917000059170000E0
:1000600059170000591700005917000059170000D0
:1000700059170000591700005917000059170000C0
:1000800059170000591700005917000059170000B0
:1000900059170000591700005917000059170000A0
:1000A0005917000059170000591700005917000090
:1000B0005917000059170000591700005917000080
:1000C0005917000059170000591700005917000070
:1000D0005917000059170000591700005917000060
:1000E0005917000059170000591700005917000050
:1000F0005917000059170000591700005917000040
:10010000591700005917000059170000591700002F
:10011000591700005917000059170000591700001F
:10012000591700005917000059170000591700000F
:1001300059170000591700005917000059170000FF
:04014000591700004B
:1001440053B94AB9002908BF00281CBF4FF0FF313A
:100154004FF0FF3000F00CB8ADF1080C6DE904CE9F
:1001640000F008F8DDF804E0DDE9022304B070478C
:10017400704700BF2DE9F04786468C460846089E26
:10018400154674461946002B40F0C1808542B2FAE8
:1001940082F245D94AB1C2F1200300FA02FC95402B
:1001A40094402EFA03F343EA0C0C4FEA154EA8B21E
:1001B400230CBCFBFEF80EFB18CC08FB00F943EA49
:1001C4000C43994528D9EB1808F1FF3704D2994517
:1001D40002D9A8F102072B44A3EB0903A4B2B3FB91
:1001E400FEFC0EFB1C330CFB00F044EA0344A0426B
:1001F40014D92C190CF1FF3304D2A04202D9ACF16A
:1002040002032C44241A43EA07401EB1D4400023BD
:1002140034607360BDE8F0874746DDE76346F1E785
:1002240092BB431B01214FEA154EAFB2200CB3FB26
:10023400FEFC0EFB1C330CFB07F840EA0343984515
:1002440061D9EB180CF1FF3004D2984502D9ACF116
:1002540002002B44A3EB0803A4B2B3FBFEFC0EFB89
:100264001C330CFB07F744EA0344A7424DD92C196D
:100274000CF1FF3304D2A74202D9ACF102032C449F
:10028400E41B43EA0040C0E7C2F1200395409440D8
:1002940020FA03F12EFA03F34FEA154E9040AFB261
:1002A4000343B1FBFEFC0EFB1C10190C0CFB07F8FE
:1002B40041EA0041884522D969180CF1FF3004D283
:1002C400884502D9ACF102002944A1EB08019BB294
:1002D400B1FBFEFC0EFB1C110CFB07F743EA0143C8
:1002E4009F420ED9EB180CF1FF3104D29F4202D980
:1002F400ACF102012B44DB1B41EA004193E7604669
:10030400E3E76146F7E76046A4E76346B8E783425C
:1003140006D916B9002108467CE7C6E900E0F9E7EA
:10032400B3FA83F78FB9834201D3724508D8BEEB81
:10033400020460EB030301209C461EB9002169E717
:100344003846FAE7C6E9004CF8E7C7F1200CBB4091
:100354000EFA07F522FA0CF42EFA0CF1BA401C43FB
:1003640020FA0CF3B8404FEA144901431FFA84FE03
:10037400B3FBF9F809FB18300B0C08FB0EFA43EA3F
:1003840000439A4540D9E31808F1FF3004D29A4556
:1003940002D9A8F102002344A3EB0A0389B2B3FBF8
:1003A400F9F809FB183308FB0EFE41EA03418E45B8
:1003B4002CD9611808F1FF3304D28E4502D9A8F173
:1003C4000203214443EA0040A1EB0E01A0FB029882
:1003D4004145CE46434602D306D14D4504D20138A9
:1003E400B9EB020E68EB0403002EA7D0B5EB0E02A6
:1003F40061EB030101FA0CFC22FA07F3F9404CEA21
:100404000303C6E9003199E74046C5E74346D9E707
:100414002DE9F04112F0FC6F1346D0E9014706695B
:100424000ED042494FF47473414A424805F0FAFF32
:10043400414805F0F7FF4FF474713D4805F0E9FFBA
:1004440002F03002302A0CD13C4940F2D333384A0E
:10045400384805F0E7FF3A4805F0E4FF40F2D331AD
:10046400EBE7384A384D1A40AA420CD1374940F2DA
:10047400D7332F4A2F4805F0D5FF354805F0D2FF72
:1004840040F2D731D9E703F00602042A09D13149F1
:1004940040F2DA33264A274805F0C4FF40F2DA3145
:1004A400CBE713F4402216D09D030CD42A4940F222
:1004B400DD331F4A1F4805F0B5FF284805F0B2FF99
:1004C40040F2DD31B9E7B2F5402F18D0244A9A43FF
:1004D40001D183F44023012524688D40254223F46F
:1004E400801219D11F4940F2ED33114A114805F029
:1004F40099FF1D4805F096FF40F2ED319DE71B4939
:1005040040F2E1330A4A0B4805F08CFF184805F025
:1005140089FF40F2E13190E73468DB074CBF2C439C
:10052400AC4334603B68BDE8F041184715710000E6
:10053400E4700000727100008F710000B37100005C
:10054400EC710000020003000200010029720000A7
:1005540070720000BF720000F27200003873000075
:1005640001001000E07300001E74000073730000AB
:10057400B473000008B506F013F9BDE8084001465D
:10058400014805F039BF00BF3074000070B5094E52
:10059400094D4FF0FF334FF0FF32304603F01AFDA0
:1005A4000446D0E90112284605F026FF204606F04D
:1005B40091FAEEE7A400002046740000F0B585B07F
:1005C400424C204606F09AF930B92168404805F0BB
:1005D40013FF002005B0F0BD082120463D4AFFF777
:1005E40017FF014628B1082322683B4805F004FFA1
:1005F400EFE7D4E90125AE69236926B31268D20571
:100604000ED4364940F28B33354A364805F00AFF9A
:10061400354805F007FF40F28B31314805F0F9FE0B
:100624001B68082113F4807F14BF4FF000734FF050
:1006340080634FF0A0722046B047014630B10823D2
:1006440022682A48D2E76FF05701F8E72849294B76
:100654004B604FF480738B60EB6913B10122204629
:10066400984708222168244805F0C6FE234805F06F
:10067400C3FE164F6568224E2B68DB050CD4174960
:1006840040F2FF53164A174805F0CCFE164805F011
:10069400C9FE40F2FF51C0E723690193A36803A98F
:1006A40038465B689847014628B9019B03991B6843
:1006B4005940C1F30021002902DD304605F09CFEBB
:1006C400002141F69A1004F05DFDD5E7646C00004A
:1006D400617400001100010087740000E0730000E1
:1006E400E4700000727100001E740000B074000019
:1006F4007804002079050000E6740000027500000B
:10070400147500002DE9F04F05460E46904600682A
:1007140085B006F0F3F82B6830B919683A4805B08B
:10072400BDE8F04F05F068BEEA88297942F400324A
:100734001846FFF76DFE044678BB4FF4004740F2BD
:10074400E730214626EAE676C6FB07014FF47A72C3
:100754000023FFF7F5FC4FF0010A07460E46A346B7
:10076400DFF8A8902868297942680AFA01F112682A
:10077400D0F810C0114204F0010317D124494FF4FA
:10078400CB63244A244805F04DFE244805F04AFE74
:100794004FF4CB611F4805F03CFE01462B7A2A79C1
:1007A4001F4805B0BDE8F04F05F026BEDCF8002078
:1007B400114218BF83F001039BB18368DB6898473B
:1007C4000C20CDE901B8039406F08BF9034658B91F
:1007D400144911485F23144A05F024FE5F2112488E
:1007E400D9E783681B69EAE701AA03CA186010689D
:1007F400596098601946484606F0BFF838463146B5
:1008040004F0C0FC0134ADE729750000A400002009
:10081400E0730000E4700000727100001E740000B8
:10082400487500009E75000079750000002242F2B0
:1008340010710148FFF766BF846F0000012202496E
:100844000248FFF75FBF00BFA0860100786F000079
:1008540070B50C46002934D002680B1F9B1AD908C6
:1008640023F0070313445D88E8070DD4AF23154A2A
:100874001549164805F0D6FD2146154805F0D2FD68
:10088400AF21104805F0C5FD104605F09CFC084456
:1008940032F83060801B81420BD0B723094A0D49DE
:1008A4000A4805F0BFFD21460B4805F0BBFDB72102
:1008B400E7E725F001055D801046BDE8704005F0CE
:1008C4003FBD70BDD2750000F57500007271000067
:1008D400067600003E760000647600002DE9F843B9
:1008E4004B1E0B400F461446066810D0C1F1000998
:1008F40009EA01094A46591E042A28BF042219425A
:100904000CD11F46E4B900252846BDE8F883042924
:1009140013D8BDE8F843114605F043BD2C494FF404
:10092400A2732C4A2C4805F07DFD2C4805F07AFD75
:100934004FF4A271274805F06CFD99460422E1E7C3
:10094400B368B3EBD40FDED904F10B013944891A2F
:100954003046C90805F08DFC80460028D3D009F143
:10096400040505EBC0057B1E35441D44B5FBF7F5B6
:100974007D43A5EB09052C442B1F07349B1B24F056
:100984000704A41BB0EBD30F4FEAD3074FEAE404E8
:1009940008D201463A46304605F0B8FC4146304696
:1009A40005F016FC3946304605F00DFC3844844207
:1009B40007D23046224605F0A9FC2146304605F010
:1009C40007FC06EBC706738843F0010373809BE7BB
:1009D400A0760000D275000072710000BB760000A2
:1009E400B2F5802F2DE9F0410ED33C4940F2EB13D0
:1009F4003B4A3C4805F016FD3B4805F013FD40F228
:100A0400EB11374805F005FD042A0CD837494FF49B
:100A1400F973334A334805F005FD354805F002FD06
:100A24004FF4F971EDE7043ACD1D8E1825F0070552
:100A340026F00706761B172E4FEAD6070CD82D4949
:100A440040F2FB13264A274805F0ECFC284805F041
:100A5400E9FC40F2FB11D4E7B7FA87F44FF0000841
:100A6400C4F12002C4F12404A4000734E408631C84
:100A7400BB420560AF60C5F80C800CD91E494FF429
:100A84000373174A174805F0CDFC194805F0CAFC52
:100A94004FF40371B5E74146920005F1100006F0EA
:100AA4009EF8630043F001036B803B1B05EBC4021B
:100AB4005900A5F800805180AA1925F83440A2F8FD
:100AC4000280AB5305EBC7035A88214642F001026A
:100AD4005A802846BDE8F04105F07ABBD87600007C
:100AE400D275000072710000EE76000005770000F8
:100AF400267700003F77000068770000014B1B68F1
:100B0400184700BF00000020014B1860704700BF69
:100B14000000002030B585B004460D4610220021A7
:100B2400684606F05CF802238DF80230044B2A462E
:100B340021466846019305F0EBF805B030BD00BFCF
:100B4400010B000080B505460E461746984604F092
:100B54004FFB034606F04CF80446DFF81890424673
:100B640049F8003039463046A84754F8090000F0E7
:100B7400BBFC00BF080000002DE9F84F0446A38B1E
:100B840008461907154612D4022803F0070165D157
:100B9400204605F054FC88B10138042800F237815E
:100BA400DFE810F05C0035018200D4000401012864
:100BB4000CBF43F0100143F02001A18314342046FC
:100BC40004F070FC002840F09D819A4940F23113F2
:100BD400994A9A4805F026FC2146B1E003F0070241
:100BE400501F01281ED80020062A2768C4E90000E7
:100BF40014D13A4603E0E08B0130E0831268002A06
:100C0400F9D123F0070343F002022046A28305F042
:100C140016FC90B342F02002A2832EE023F00703D7
:100C24009AB2F2E7042A33D123F007039AB220469A
:100C3400A28305F004FC10B142F02002A283A38B2E
:100C440003F00709894540F0EC80A18BCA0640F106
:100C5400508121F01003A38301F00701D4F8188018
:100C6400A38BB8F1000FB9DA0022276823F0070339
:100C7400C4E9002243F00103A383A38B03F0070913
:100C8400894540F0CF80002FDFD00026B24644E0F3
:100C94006B4940F21B136B4A684805F0C3FB40F2F2
:100CA4001B11684805F0B5FB49B167494FF4AB73B4
:100CB400644A624805F0B6FB4FF4AB71F1E7236870
:100CC4004BB9624940F257135E4A5C4805F0AAFBEF
:100CD40040F25711E5E723691E684EB95C494FF4A9
:100CE400AD73584A554805F09DFB4FF4AD71D8E7F4
:100CF4000F4688464FF00609A38B23F0070343F001
:100D040006039BB2A383A268002A40F08D80002FC3
:100D140040F08D80002E98D0BA4643F0080304F1C9
:100D2400140B5846A38304F0BDFB002840F09A80BE
:100D3400404940F23113404A404805F073FB59469C
:100D4400444805F06FFB40F23111ADE0022909D0AF
:100D5400414940F25D133B4A384805F063FB40F2D9
:100D64005D119EE7E78B4FB13C494FF4AF73354AB1
:100D7400324805F057FB4FF4AF7192E723695E6880
:100D84004EB9334940F261132E4A2C4805F04AFB10
:100D940040F2611185E7A38BB84623F0070343F0C3
:100DA40004039BB24FF00409A383ACE7012909D0E3
:100DB4002B494FF4B273234A204805F033FB4FF418
:100DC400B2716EE723684BB9204940F265131D4A9E
:100DD4001A4805F027FB40F2651162E723699E6813
:100DE4004EB91B494FF4B473164A144805F01AFB64
:100DF4004FF4B47155E70027A38BB84623F00703DB
:100E040043F005039BB24FF00509A3837BE70C492C
:100E140040F26B130B4A094805F004FB40F26B11D6
:100E24003FE7002700266EE74FF0010A75E7924678
:100E340073E700BF66780000397800007271000023
:100E44003673000093770000B8770000C477000081
:100E5400E77700007D780000FE770000147800003A
:100E64002378000085F31188BFF36F8FBAF1000F68
:100E74001CD177BB16B120462549B047EFF3118545
:100E8400202383F31288BFF36F8F584604F0FCFAD3
:100E940038BB88231F4A2049204805F0C3FA594625
:100EA4001F4805F0BFFA88211A48FBE6A16800290B
:100EB400DFD00D680029DCD043464A462046D1F8ED
:100EC40004A0D0471DB12B6829461D46F2E72B46E6
:100ED400FAE7394643464A4620463F6805F0DBFABE
:100EE400C7E7584604F0F4FAA38B23F00803A3835E
:100EF400ABE68B067FF562AE21F02003A38301F0FD
:100F0400070145E685F31188BFF36F8FBDE8F88FBD
:100F1400290F0000397800009278000072710000F7
:100F2400A7780000F8B504460D4600F11406EFF367
:100F34001187202383F31288BFF36F8F304604F0A8
:100F4400A3FA68B988230C4A0C490D4805F06AFADB
:100F540031460C4805F066FA8821074805F059FA2D
:100F6400304604F0B5FAA5613A462046BDE8F8409B
:100F74000121FFF701BE00BF39780000927800001C
:100F840072710000A77800002DE9F04704460F466F
:100F940005F071FA051E68DB04F11409EFF3118AF8
:100FA400202383F31288BFF36F8F484604F06CFA52
:100FB400804660B98823384A3849394805F032FAFE
:100FC4004946384805F02EFA8821334842E048461D
:100FD40004F07EFA4FF6FF72E38BA68B934206F081
:100FE400070645D0022E15D135460133E383484622
:100FF40004F058FA002841D140F23113264A2A4914
:10100400274805F00FFA4946284805F00BFA40F244
:101014003111DAE7062E13D8DFE806F0092D121293
:10102400090409006FF085054FF00008DFE700238D
:101034003B60636883B9C4E9007786B13546F3E75A
:101044001B4917484FF4E4731A4A05F0EBF94FF4BF
:10105400E471184805F0DDF91F606760EDE752465A
:1010640002212046FFF788FD35462846BDE8F08773
:101074006FF00A05D8E76FF00405D5E78AF3118805
:10108400BFF36F8FB8F1000FEFD00023324639461B
:10109400204605F000FAE8E739780000927800006D
:1010A40072710000A7780000667800007D78000067
:1010B400237800009377000008B54268034602F0E5
:1010C4000302032A816002D02AB1002000E00068F4
:1010D40000225A6008BD054905484523054A05F024
:1010E400A1F94521034805F094F900BF36730000C7
:1010F40072710000BD780000014B0360002070474E
:10110400906F000030BFFFF7FDBF00BF2DE9F04135
:1011140005460B4EDFF82C80324606EB0807CC1B45
:101124002046094905F04EFDA01942460021083C1D
:1011340005F055FD2C6707F10800BDE8F08100BFFC
:101144000000000004000000686F0000074A936874
:1011540093F90E10002907DB526993421FBF044A1A
:10116400536843F080535360704700BF5405002018
:1011740000ED00E0154B9A6A12F0007F9A6A14BFE2
:101184001E201D2012F0807F9A6A18BF1F2012F4BF
:10119400801F9A6A18BF022012F4002F9A6A18BF9F
:1011A400212012F4802F9A6A18BF222012F4003FE3
:1011B4009A6A18BF232012F4803F9A6A18BF242029
:1011C4006FEA02426FEA12429A62704700ED00E051
:1011D40010B5194B0246986A9C6A10F4805F14BFDC
:1011E4001720162014F4006F9C6A18BF1820A40559
:1011F40009D5986B986A000404D51AB19A6A22F446
:1012040000429A6219200C4B9A6A12F4806F9A6A0F
:1012140018BF1A20D2050CD49B6A13F4005F18BFC0
:101224001C20054A936A43F47F43936200230B70A6
:1012340010BD1B20F5E700BF00ED00E010B5264B04
:101244000246986A9C6A10F0100F14BF11201020F7
:1012540014F0080F9C6A18BF1220A40709D5586B14
:10126400986A000604D51AB19A6A22F080029A623A
:101274001320194B9A6A12F0010F9A6A18BF1420AE
:1012840012F0200F9A6A18BF1520D20602D49B6A66
:101294009B0712D5104B9B6ADC060ED50F4940F212
:1012A40063130F4A0F4805F0BDF80F4805F0BAF86C
:1012B40040F263110A4805F0ACF8074B9A6A9206AB
:1012C40042BF5A6A22F400525A629A6A42F0FF02FA
:1012D4009A6200230B7010BD00ED00E01579000048
:1012E400E3780000727100005F790000F0B55D4B97
:1012F40004465B6800258BB0C3F3080385F31188AB
:10130400BFF36F8F02F07F40B0F17F4F08D102F03E
:101314000C00082804D012074CBF0C46012574B9F0
:1013240051494FF48B63514A514805F07BF85148B9
:1013340005F078F84FF48B614C4805F06AF8002208
:10134400033B8DF80720032B00F28480DFE803F0D1
:10135400027A7E5D434AD36A13F002037AD1D16ADA
:1013640000291ADBD36A5B005FD55369A16943F492
:1013740080735361BFF34F8FBFF36F8F536931F89D
:10138400021C23F480735361BFF34F8FBFF36F8F3D
:101394004DF60273994220D123689DF80720D2B9F3
:1013A400224602AE04F12007344610685168083220
:1013B40003C4BA422646F7D1099A002D4CD0C2F391
:1013C400080121B96FEA52226FEA422209921846B3
:1013D40002A905F09BF80BB0F0BD936ADBB233B100
:1013E40001200DF10701FFF729FF0346D5E7936AB2
:1013F40013F47F4F05D001200DF10701FFF7E8FE3C
:10140400F3E7936AB3F5803F02D3FFF7B3FEECE74B
:10141400194940F22A33154A154805F003F81748CC
:1014240005F000F840F22A3186E7134940F22E33E2
:101434000E4A0F4804F0F6FF114804F0F3FF40F29F
:101444002E3179E700200DF10701CCE700200DF1E2
:101454000701D3E70023A0E722F4FF7222F0010280
:10146400B4E700BF00ED00E0C3790000E3780000BA
:1014740072710000D679000036730000147A0000FF
:10148400387A0000064B5A6942F010025A615A69D0
:1014940042F480625A615A6922F008025A61704724
:1014A40000ED00E0EFF30880EFF3098101B5724627
:1014B400FFF71CFF01BD00BF01F0DEFB202080F31D
:1014C400118808484FF40061401880F30988EFF34D
:1014D40014800221084380F31488BFF36F8F00F057
:1014E400C3F8000098150020084B9B6883420BD179
:1014F400EFF3058343B1064B5A6842F080525A60B9
:101504005A6A22F400425A6203F078BE540500205D
:1015140000ED00E06FF00A01084A936899670849F2
:1015240058674B6843F080534B60002383F3118862
:10153400BFF36F8F9368986F704700BF5405002006
:1015440000ED00E016498A684FF030001044EFF3D4
:10155400098C80E8F01F202080F31288BFF36F8F7E
:10156400104F4FF000664A698A603E604FF0700485
:10157400141920680C4C2060506F0023536780F3CB
:10158400118802F1300090E8F01F8CF3098802F111
:10159400000004B504F0CFFFBDE80440704700002C
:1015A4005405002004ED00E0840400201EF0040F24
:1015B4000CBFEFF30880EFF30980816911F8021C76
:1015C4000229FFD001B504F0A7FF01BD40B20028F5
:1015D40007DB01234109034A00F01F00834042F85E
:1015E4002130704700E100E0054B420953F8222006
:1015F400012300F01F0003FA00F01040704700BF01
:1016040000E100E038B54B1C072B04460D460FD90A
:101614005823104A1049114804F004FF2946104881
:101624000723224604F0FEFE58210A4804F0F1FE86
:1016340040B20028ACBF00F160400A4A4FEA4313AD
:10164400DBB2ABBF00F5614000F00F0080F800335F
:10165400135438BD687A00009F7A0000727100004C
:10166400BA7A000014ED00E00F4A08B50F4B22F0DF
:101674007F029A60BFF34F8FBFF36F8FD3F8882038
:1016840022F47002C3F88820EFF3148323F00403D8
:1016940083F31488BFF36F8F02F0EAFA03F020FF9C
:1016A40000F04CF802F024FB0000000000ED00E024
:1016B40042F8203C009B0B4942F81C3C019B21F062
:1016C400010142F8183C029B42F8081C42F8143C01
:1016D4004FF0807342F8043C0023203A02654367CC
:1016E400704700BF490B000000B50D4B15469860CC
:1016F400026F0C4B0E461A60036E83F30B882C4664
:1017040086F309884FF00000074B984720464FF0B6
:1017140000014FF000024FF00003044C204700BFCB
:10172400540500208404002043650000490B000098
:101734001022014B1A61704700ED00E000232021C4
:101744000348C2180133412B82F80013F9D17047C2
:1017540000E100E008B5EFF30583064A103B02EB15
:10176400C30152F8330049688847BDE80840FFF7D1
:10177400EDBC00BFA06C00001FB5094C094A23460C
:101784000121094800F0FAF800230393074B0121D3
:10179400E41A01A80193029400F014F904B010BDF6
:1017A4000060012000000020906F0000B8000020BD
:1017B40010B50C7A0B6804F01F0223F01F031A43C0
:1017C400CB68640923F01F03054943EA440343F04B
:1017D4000103C1F89800C1F89C20C1F8A03010BDE5
:1017E40000ED00E010B5074BD3F89030C3F30723A6
:1017F400013B984202D8FFF7DBFF10BD6FF01500E4
:10180400FBE700BF00ED00E02DE9F04F0F46144662
:1018140006464FF000084D4D85B0B84580F29280E1
:10182400D6F80490B9F1000F36D0B9F11F0F40F289
:10183400878019F01F0F40F08380D6F800A01AF0BB
:101844001F0F7DD1504604F09DFE834609EB0A002C
:10185400013804F097FE834572D11BF1160F6FD047
:101864005C456DDDC5F898B0D5F89C10C5F898B006
:10187400D5F8A03021F01F0143F01F0AD6E9003249
:101884001A44994202F1FF391ED1CA4508D13146A2
:101894005FFA8BF004F07FFE08F101080C36BCE718
:1018A4003146C5F898B0D5F89C3022F01F0203F0F9
:1018B4001F031343C5F89C30E0B204F06CFE10F132
:1018C400160F3DD0441CE7E7C5F898B0D5F8A02022
:1018D400013B23F01F0302F01F021343CA453146A4
:1018E400E0B2C5F8A030E8D004F055FE10F1160FB0
:1018F40026D0C5F898B0D5F89C209DF808300AF198
:10190400FF3A62F304038DF80830D5F8A0309DF84F
:1019140008205B0863F347128DF80820D6E90032EB
:101924001344009323F01F035344A3EB0903013032
:1019340023F01F036946C0B20393FFF753FFBEE7CA
:101944006FF01504204605B0BDE8F08F00ED00E00F
:101954000522044BC3F89420BFF34F8FBFF36F8F5E
:10196400704700BF00ED00E0BFF35F8F0022024B21
:10197400C3F89420704700BF00ED00E038B50C4D6B
:101984000C462A78FFF740FF287016300FD140F23A
:101994006F13084A0849094804F044FD21460848E1
:1019A40004F040FD40F26F11024804F032FD38BDEE
:1019B40090050020FA7A000036730000727100006E
:1019C400297B00002DE9F74F314E894605464FF03B
:1019D4000008B3462F4FC84502DB03B0BDE8F08FC3
:1019E400D5F804A0BAF1000F4CD02968084601913B
:1019F40004F0C8FD019904460AEB0100013804F023
:101A0400C1FD84424FF01402234B15D002FB08F3AE
:101A14006FF015024BF8032040F27F131F4A204950
:101A2400204804F0FFFC49461F4804F0FBFC40F248
:101A34007F111A4804F0EDFC14F1160F3460EBD05A
:101A44001978A142E8DD02FB08B0C7F89840C7F84E
:101A54009840D7F89C4000F10801007B64F304002F
:101A64000871D7F8A0000C79400860F347140C7192
:101A7400D7F89C1021F01F017160D7F8A01021F055
:101A84001F01316108F1010814360C35A3E700BFCA
:101A94008804002000ED00E090050020FA7A0000A0
:101AA4003673000072710000557B00002DE9F0418F
:101AB400574C584ED4F890303568C3F307239D42F1
:101AC40086B013D94FF4D373534A5449544804F09D
:101AD400A9FCD4F8902029465248C2F3072204F006
:101AE400A1FC4FF4D3714C4804F093FC0020FFF7A1
:101AF4003BFF4D4BC4F8C03085421AD14B4C01A872
:101B04002570FFF7F9FA002506464FF04108484FC3
:101B1400AE4215D1002023783D49D1F89020C2F37C
:101B2400072293426DDB0020FFF712FF06B0BDE8E9
:101B3400F081716801EB0011FFF73AFE0130DBE739
:101B4400019A290102EB0513D3F80CC00CEA070033
:101B5400B0F5001F27D0B0F5800F40D0B0F5801F3E
:101B64004DD1586852589B68CDE902022122013BAD
:101B740020F01F010B4423F01F038DF81020059360
:101B8400207802A9FFF72EFE002835DA23494FF406
:101B9400E873214A224804F045FC264804F042FC3C
:101BA4004FF4E8719FE758689B685258013B20F056
:101BB4001F010B4423F01F031CF0010FCDE90202A7
:101BC4008DF810800593DBD01B497423124A144806
:101BD40004F028FC194804F025FC742183E75868B4
:101BE4009B685258013B20F01F010B44CDE90202CF
:101BF40023F01F030622C0E7237801332370013545
:101C040086E7C1F89830C1F8A000013385E700BF2A
:101C140000ED00E09C6F0000FA7A000036730000CB
:101C240072710000847B0000AAFF4400900500202C
:101C34000000F0FF0D7C0000B87B0000DE7B00009C
:101C440008B5024B1B689847002008BD9C0400207F
:101C5400034B044A1860937843F00203937070476F
:101C64009C0400200400002008B50649064821F021
:101C74000701C1F1005202F5B032FEF7B1FE0020B7
:101C840008BD00BFDF230020A00400200122024B76
:101C94000020C3F8402570470090035020B1034B47
:101CA400800143F001031847704700BF706F0000C4
:101CB40037B540230C460A490093411A4911054699
:101CC4002346084A084804F084FC011E05DA284625
:101CD400234603B0BDE83040184703B030BD00BF11
:101CE400C004002041660000506C0000C9B2012904
:101CF40008B509D9084909487A23094A04F092FB2E
:101D04007A21074804F085FB0C22036901FB0233A6
:101D1400986C00F0070008BD837C0000727100001D
:101D2400467C000070B5C9B2012903690BD9194971
:101D3400194840F25D13194A04F074FB40F25D1136
:101D4400164804F066FBEFF31185202484F312880F
:101D5400BFF36F8F0C2606FB0134A46C14F0C0048F
:101D640008D0A24206D085F31188BFF36F8F4FF0DD
:101D7400FF3070BD012206FB01339A6485F311889C
:101D8400BFF36F8F436803EBC1035B689847002080
:101D9400EFE700BF837C000072710000467C000006
:101DA40070B50D4606490446411A491140220548BA
:101DB400FFF7B8FF2B4601462046BDE870401847A0
:101DC400C0040020506C000070B5002201210446BC
:101DD4000520FFF717FC0F4801F010F90E4B98424D
:101DE40015D101F01BF926690C49304604F069FB52
:101DF40000280BDB0125B5642469084904F120009F
:101E040004F05FFB002801DB0020656570BD6FF006
:101E14000400FBE7D91E00000000AD0BC46F0000F6
:101E24001FB500220123CDE902236B46084ACDF8F1
:101E340000D0CDF804D004F0FAFB002805DB4FF401
:101E440080420023684602F0CDF905B05DF804FB3A
:101E54005966000010B5EFF31184202383F3128830
:101E6400BFF36F8F074A136823F00201DB07116089
:101E740002D4012001F070F984F31188BFF36F8F4D
:101E840010BD00BF180500200C22104B014602FBB8
:101E94000033002030B4D3E910521864EFF31180FA
:101EA400202484F31288BFF36F8F9C6C04F0C00469
:101EB40044F002049C6480F31188BFF36F8F1DB15A
:101EC4002B4630BC0248184730BC7047C004002081
:101ED400506C0000012808B506D0042808D098B931
:101EE4000F4B9B6C5B0719D1BDE80840FFF7CCBFD3
:101EF4000C4940F26E230C4A0C4804F093FA40F269
:101F04006E21094804F085FA064940F27223064A14
:101F1400064804F087FA40F27221F2E708BD00BFD8
:101F2400C004002036730000467C0000727100007B
:101F340010B4EFF31182202383F31288BFF36F8F61
:101F44001748016841F002040460C80707D482F30B
:101F54001188BFF36F8F012010BC01F087B84FF0D8
:101F64005021D1F80C04D1F80C14C907EFD5EFF3C4
:101F7400118083F31288BFF36F8F0A498B6C03F0CF
:101F8400C00343F002038B6480F31188BFF36F8FA7
:101F940082F31188BFF36F8F002010BCFFF774BF6A
:101FA40018050020C00400202DE9F0410122064656
:101FB4004349D1E8EF3FC1E8E02F0028F9D1A3B9A4
:101FC400404941484B60CB608A60FEF7DDFF002842
:101FD4000BDA3E494FF40C733D4A3E4804F022FAB2
:101FE4004FF40C713A4804F014FA76B3731E012BC3
:101FF4005BD8012E07D14FF05023D3F81C3403F0E3
:102004000303022B21D004F0C3FC0546F8B9324B7C
:102014001B78E3B14FF0502302220746C3F808238C
:102024004FF05024DFF8B480D4F81824D4F81834CE
:10203400D20315D503F00303022B01D0012E0FD1D7
:102044006DB387F31188BFF36F8FBDE8F081EFF3B1
:102054001187202383F31288BFF36F8F0125DFE7F5
:10206400C5B1384604F07FFAD4F81835DBB2012B39
:10207400DAD1D4F80421002AD6D00022C4F80421ED
:10208400D4F804210222C4F818252022C8F880219B
:10209400A360C9E70021212003F074F8E4E74FF0BE
:1020A40050230222C3F80423CFE70D4940F2422310
:1020B400074A084804F0B6F940F2422192E700BF0B
:1020C400BC040020AC040020E0040020A77C000035
:1020D400467C0000727100009505002000E100E0DC
:1020E4003673000008B5074804F008FC38B1064808
:1020F400FFF7AEFD0448FEF707FD002008BD6FF0B2
:102104001200FBE78C6C0000112100000A2838B58E
:102114000446074D04D1AB680D2128465B689847F7
:10212400AB6803485B68E1B29847204638BD00BFFE
:102134008C6C000010B5036961B920493E23204A24
:10214400204804F06FF9204804F06CF93E211C4843
:1021540004F05FF9486850B91C493F23184A1948EC
:1021640004F060F91A4804F05DF93F21EFE758687C
:10217400F8B1884219D19C680868A142586000D11E
:102184009860002008602AB15A680A609A68596009
:1021940002B99960002010E0814206D108682060ED
:1021A40098688142EDD19C60EBE704460068002802
:1021B400F2D1002AE8D16FF0150010BDF77C0000C1
:1021C400BB7C000072710000007D00000F7D0000E8
:1021D400217D000038B545682B69B3B11035284618
:1021E40001F01EFB044680B90146284601F0C8FAF6
:1021F400084B98420BD122462846074901F090FA31
:10220400224605210D20FFF7FDF9002038BD6FF0AF
:102214000400FBE70000AD0B4523000008B502688D
:10222400530904D14FF0FF33D340DB070BD40749E4
:10223400074840F27D33074A04F0F4F840F27D3158
:10224400044804F0E6F8044808BD00BF6B7D0000B4
:1022540072710000387D000000258450F0B540689C
:1022640001F01F04057B87B044EA45140569002D7D
:102274005BD0B2F5001F00F1100506D121462846B7
:1022840004F036FB002007B0F0BD0027B2F5800F44
:1022940001AE0197776033D1B3F1007F14BF0523FA
:1022A40004238DF804300023CDE904630393836889
:1022B400CB40D90716D4B2F1A07F13D1684600945D
:1022C400FFF7ACFF04F1800350F82330DB0709D497
:1022D4006A462146284601F029FA174B98421AD03B
:1022E400CDF808D02146284603AA01F0E9F8134B9B
:1022F40098421DD101222146284601F0A7FAC1E7E0
:10230400B3F1C06F05D0B3F1007F14BF01230223E2
:10231400C7E70323C5E76946284601F091FA074B4E
:102324009842DDD06FF00B00ADE76FF08500AAE7AF
:102334006FF01500A7E700BF0400AD0B0000AD0B64
:10234400430970B507D1124B596821B101250C68B6
:10235400104E854001B970BD8A682A4010D04B6880
:1023640063B90D4961230D4A0D4804F05BF80D482B
:1023740004F058F86121094804F04BF830469847B6
:102384001CB1236821461C46E4E72346FAE700BF54
:102394001C050020646C00008E7D0000BB7C0000E6
:1023A40072710000217D00002DE9F043466840F27F
:1023B4000635337BD00601F01F0747EA431748BFB1
:1023C400032302EA050558BFC2F3401387B0B5F5ED
:1023D400837F14468DF8033043D00FD8062D18D0D0
:1023E40007D8B5B1022D3ED06FF0150007B0BDE897
:1023F400F083B5F5807FF7D101250AE040F202228F
:10240400954232D0B5F5407F31D0B5F5007FEBD1A0
:1024140002250123220303FA01F12AD57368996086
:1024240033695BBB03A80397FFF7F8FE84F480339A
:1024340000EB8700C3F30043C4F34044D0F8002208
:1024440044EA43049DF8033022F4E16244EA83043D
:1024540022F0070244EA05231343C0F800320020A7
:10246400C4E70725D5E70425D3E70525D1E70325E8
:10247400CFE7630344BF7368D960D1E710363946A8
:1024840030460DF1020201F051F914F4403F804648
:1024940017D13946304604F029FA244B9845DED149
:1024A40030469DF8021001F0C5F94045D7D02049C7
:1024B4002048EC23204A03F0B5FFEC211E4803F02A
:1024C400A8FF4FF0000901AB3946304603AACDE915
:1024D4000439CDE90199CDF80C9000F0F1FF134BCC
:1024E400984281D114F4003315D09DF8033084F45C
:1024F4008034C4F300448DF80E3039464B463046E0
:1025040003AA8DF80C508DF80D4001F08BF8074BA1
:102514009842C2D068E7CDE9043339460DF103038C
:10252400304603AA039300F0CBFFF0E70000AD0BA5
:10253400C67D0000727100009A7D000008B5026833
:10254400530904D14FF0FF33D340DB070BD40749C1
:10255400074840F27D33074A03F064FF40F27D31BF
:10256400044803F056FF044808BD00BF6B7D00001B
:1025740072710000387D0000002584502DE9F04F71
:102584001546824640F2FF19DFF848B185B000EBEA
:102594008108D04503D1002005B0BDE8F08FDAF8FA
:1025A40000305A04C3F3C321C3F3080400F18C8040
:1025B400494A1B0E4C4508BF4FF0FF34575C192B9A
:1025C40000F28580DFE803F00D141A1D20261D8318
:1025D4008383833460838383838383838383637765
:1025E4007A7DC5F80C45631C5BD10AF1040AD0E777
:1025F400C5F81445661CF8D000265AE0C5F808450D
:10260400F1E7C5F81045F5E7601CC5F80845ECD0BE
:10261400002604E0611CC5F80C45E6D0012603A899
:102624000394FFF78BFF012101FA04F3C36008E070
:10263400C5F80845002FDDD1631CD6D00026062737
:102644003146DAF80030039403F40040002818BF40
:10265400002103A818BF012601930091FFF76EFF24
:10266400019B00EB8400D0F80042C3F3412C009995
:102674003B0243EA8C030B4304EA0B04234343EA7F
:102684004603C0F80032B0E7C5F80C45D2E7C5F8F8
:102694006045621CDAF80030A7D0C3F30043002B76
:1026A400BCD0012603A80394FFF748FF06FA04F3FD
:1026B40083603146C5E7C5F86445EAE7C5F868456F
:1026C400E7E7C5F86C45E4E76FF0150064E76FF0E1
:1026D400850061E7F0F8FCFFE67D00002DE9F0419C
:1026E40004460D46476804F053F94FF0200888B9B2
:1026F400264B1B7873B16426606804F002F8F0B9C5
:10270400012004F073F8013EF6D10021212002F0EB
:1027140039FDF0E7EFF31186314688F31288BFF3F1
:102724006F8F606803F0EDFFA8B986F31188BFF3DB
:102734006F8FEFE786F31188BFF36F8FE5E7EFF351
:102744001186314688F31288BFF36F8F606803F0F7
:10275400D8FF0028EED0BB6900201D706368BA69F9
:102764001B68C3F844250122C3F84825C3F8200197
:10277400D3F82041C3F85801D3F858019A6081F383
:102784001188BFF36F8FBDE8F08100BF950500206D
:10279400F7B50546426813691168C1F82435137DFD
:1027A400507D927D03431343C1F86C356E68D6E9BE
:1027B400004313F0010348D02F6907F1080004F027
:1027C40022F8304B98425AD1387A04F10C0204F5BD
:1027D400907104F00DF8387A012707FA00F000F040
:1027E40065FB0823C4F80035B369C4F844350023F5
:1027F400C4F84835A760D4F85831002BFBD0002129
:10280400C4F800156B6801AADC68204603F04CFF8D
:10281400002805DB019B226819791868FFF7AEFED2
:1028240008216A681368C3F80015117A51B9D2698E
:10283400C3F834250122C3F83825C3F81011D3F89E
:1028440010111A60002003B0F0BD0822C4F800255E
:10285400B269C4F84425C4F848350123A360D4F808
:102864002031002BFBD00023C4F82031D4F82031D0
:102874000123E3604FF48073C4F80433BBE76FF0C3
:102884000400E0E70000AD0B70B40E4922F07F466F
:10289400D1E90034D01AC31844F10004C1E900346A
:1028A400A6F50013B3F5400F09D2074B1B681A0AAB
:1028B4001B069C19054B42F10005C3E9004570BC99
:1028C40002F082BFC802002048050020D002002088
:1028D4000D4B1868010A0006BFF35F8F0B4BD3F84A
:1028E4000435181841F10001B3F5801F0AD2084BD2
:1028F400D3E90023904271EB030303D210F18070FB
:1029040041F10001704700BF48050020005001500C
:10291400D00200202DE9F7432E4BD3F8042390076F
:102924000BD5D3F8042142B10022C3F804212A4A6A
:10293400D3F80431136801331360264AD2F8043300
:10294400D90326D5254BD3E8EF1F21F00100C3E8B6
:10295400E40F002CF7D1CB0702D4D2F84031C3B135
:1029640000251C4CC4F84051D4F84031FFF7B0FFA7
:10297400EFF31182202383F31288BFF36F8F184B78
:10298400D3E90267B042B94106D282F31188BFF39A
:102994006F8F03B0BDE8F0834FF0FF38D3E9001028
:1029A4004FF0FF391D60C3E902894FF48033C4F846
:1029B4004833C4F84051D4F8403182F31188BFF34E
:1029C4006F8F0029E5D0009032463B462846884761
:1029D400DFE700BF005001504805002040050020FB
:1029E400B80200202DE9F84F04460D46434FD7E8BE
:1029F400EF8F28F00103C7E8E23F002AF7D14FF434
:102A040080393F4EC6F80893BFF35F8FBFF36F8FD3
:102A1400FFF75EFFA04271EB050308F0010840D206
:102A2400384B201A65EB0101984271F1000148D23C
:102A3400354BD3E902239D4208BF94423AD04FF06C
:102A4400000C24F07F40834603216FF0020EC6F889
:102A54004893C6F840C1D6F84031DFF8B0A02BF057
:102A64007F43C6F84035C6F84493D6F80425AEEB48
:102A740002035B4423F07F4353451BD9D6F840310E
:102A84005BB1D6F80425131A23F07F43B3F5000F86
:102A940010D9C6F840C1D6F8403101EB020B013120
:102AA400DDE71B4BD3E8EF1F41F00101C3E8E21F50
:102AB400002AF7D1144B174AC3E902451A600022D1
:102AC4005A60B8F1000F16D0D7E8EF3F43F0010386
:102AD400C7E8E23F002AF7D14FF48032084BC3F82D
:102AE40004230B4BD3E8AF3FDB0742BF4FF4001284
:102AF400094BC3F80021BDE8F88F00BF440500204E
:102B04000050015001008000B8020020FDFF7F004A
:102B1400400500208D28000000E100E070B54FF072
:102B2400FF3000254FF0FF31164C174B0226C4F836
:102B34000833C4F84833154BC4F80855C3E90201F7
:102B44004FF480334FF40012C4F80433104B0121C6
:102B5400C4F804631520C3F880212A46FEF752FD09
:102B64001520FEF733FD01230A4AA36000212360E8
:102B740009481360FFF736FF3046FFF715FA284679
:102B840070BD00BF0050015003000F00B8020020C8
:102B940000E100E044050020FFFF7F00431C10B566
:102BA4000F4C05D08442A8BF0446012CB8BF0124B1
:102BB400FFF78EFE0B4AD2E90031C01AB0F5000FC0
:102BC400074A0AD22044904228BF1046BDE810406C
:102BD400C01841F10001FFF705BF1046F6E700BF3A
:102BE400FFFF7F00C802002008B5FFF771FE024B0B
:102BF4001B68C01A08BD00BFC802002008B5EFF367
:102C04001083012B0C4A07D1126ABFF34F8F511C5A
:102C14004A424A41104608BD03F0C6FD00B172B6EF
:102C2400126ABFF34F8F531C5A425A4103F0BCFD42
:102C34000028EFD062B6EDE70080FF0008B5EFF39F
:102C44001083012B0B4A06D1D269BFF34F8F02F0D8
:102C54000102104608BD03F0A7FD00B172B6D269A7
:102C6400BFF34F8F02F0010203F09EFD0028F0D065
:102C740062B6EEE70080FF0010B503F095FD30B1B9
:102C84004FF050230022C3F81421C3F8182103F095
:102C94009AFD28B101225F4BC3F8382AC3F878257E
:102CA4004FF47F02D2F83031D2F83421BFF34F8F82
:102CB400C3F30B03092B05D1012A1EBF0122554B77
:102CC400C3F8782503F07FFD18B10E22524BC3F8E8
:102CD400E42E03F069FD30B100224E4BC3F80C27FB
:102CE4000122C3F810270022D30003F57F03D3F891
:102CF4000013BFF34F8F013108D0D3F80013013212
:102D0400D3F80433B2F5807F0B60EDD1EFF3108478
:102D1400FFF794FF00284DD0BFF34F8F3F4BD3F8FC
:102D24000024012AFBD1C3F80425D3F80024012A86
:102D3400FBD1012C03D003F037FD00B172B6FFF7CD
:102D44007DFF58B1364AD36923F00103D361BFF341
:102D54004F8F324AD2F80034012BFBD1FFF74EFFDC
:102D640068B12F4A136A23F0FF0343F02003136270
:102D7400BFF34F8F294AD2F80034012BFBD1012C29
:102D840003D003F011FD00B162B60022234BC3F857
:102D94000425D3F80024012AFBD1BFF34F8F214926
:102DA400214BCA6802F4E0621343CB60BFF34F8F38
:102DB40000BFFDE7FFF722FF0028ADD1194AD2F882
:102DC4008C3043F44063C2F88C304FF47F03D3F863
:102DD4003021D3F83431BFF34F8FC2F30B02092AE9
:102DE40016D1013B022B02D8104AD35C83B10C48A4
:102DF4000F490368094A8B420CBF5A230023C2F8C7
:102E0400103EC36A8B420CBF5A230023C2F8003E13
:102E140010BD00BF0040005000A0035000900350BC
:102E24000080FF0000ED00E00400FA05027E0000CF
:102E3400FA50FA5030B50468ACB1B4FA84F3012204
:102E4400C3F11F03DBB29A4024EA0202D0E8EF5F29
:102E5400A54204D1C0E8EC2FBCF1000FF6D1EAD1B1
:102E640002480B7030BD0248FCE700BF0000AD0B08
:102E74000200AD0B10B50368CB40DB0710D401236F
:102E84008B40026843EA0201D0E8EF4F944204D138
:102E9400C0E8EC1FBCF1000FF6D1F2D1014810BD1F
:102EA4000148FCE70000AD0B0400AD0B014BC3F877
:102EB400040570470070015008B549B9074908482E
:102EC4004423084A03F0AEFA4421064803F0A1FA69
:102ED40040F00040C1F8800008BD00BFA27E0000A1
:102EE40072710000657E000008B549B907490848B9
:102EF4004A23084A03F096FA4A21064803F089FA5D
:102F040040F00040C1F8800008BD00BFA67E00006C
:102F140072710000657E0000F7B54FF0502304463F
:102F240058B1012828D031493148DC23314A03F013
:102F340079FADC212F4803F06CFA0222C3F8082343
:102F440001220646DA60C3F80401D3F804310123F0
:102F540042F210754FF050278DF8073074B3012CEE
:102F64001BD0224922484FF47473234A03F05AFABF
:102F74004FF474712048DEE70022C3F80803586058
:102F8400C3F80021D3F800310DF10706DFE70BB3D6
:102F9400012003F02BFC013D1CD0D7F80C3403F4C2
:102FA4008033002EF3D0D7F80C2402F001020FE096
:102FB40083B1012003F01AFC013D0BD0D7F818347B
:102FC40003F48033002EF3D0D7F8182402F0030260
:102FD40032700BB903B0F0BD9DF807000128F9D198
:102FE40003F004FC013DB9D1F4E700BF36730000DF
:102FF40072710000AA7E0000E77E0000044B1A797B
:1030040022B9012218601A710248704702487047B9
:103014004C0500200000AD0B0C00AD0B08B50F4BA8
:103024001A795AB90E490F484FF498730E4A03F0AF
:10303400F9F94FF498710C4803F0EBF91B6833B1BC
:103044000520FEF7D1FA10B90520FEF7BFFA4FF0BC
:1030540050230122C3F8182508BD00BF4C050020E9
:103064001B7F000072710000AA7E000038B5354C49
:1030740023795BB934494FF4BD73344A344803F0BF
:10308400D1F94FF4BD71314803F0C3F958B10128A7
:103094004ED030494FF4DF732C4A2D4803F0C2F967
:1030A4004FF4DF71EFE74FF05023D3F81814D3F83F
:1030B4001824C90321D502F00303022B05D0012BE8
:1030C40002D00020FFF728FF01234FF050220220F6
:1030D400C2F8183508224FF48273002103F15023FB
:1030E40019601D68012502F15022156022681AB387
:1030F4004FF05023C3F804030FE0D3F81424D2078D
:10310400E2D5D3F81C2402F00302013A012AD8D8EC
:1031140022681AB10222C3F8042338BDD3F804216B
:10312400002AFBD00022C3F80421D3F80431F4E7C9
:1031340000224FF48073D0E71A68002AFCD019608B
:103144001B68EAE74C0500201B7F0000AA7E0000F4
:10315400727100003673000008B5094B1B795BB926
:10316400084909484FF4EC73084A03F05BF94FF43B
:10317400EC71064803F04DF9BDE80840FFF7CCBEFA
:103184004C0500201B7F000072710000AA7E000025
:103194004FF0502310B5D3F8002152B10020C3F8EA
:1031A4000001D3F800210122C3F80823104B1B6847
:1031B40098474FF05023D3F8042182B10022C3F87A
:1031C4000421D3F80421D3F81824D3F818240221B5
:1031D40002F00302012A03D1C3F818159A6010BD46
:1031E400C3F80813024B0120BDE810401B681847C0
:1031F4004C05002001460148FFF71CBE14000020C6
:1032040008B502680146104603F0FFFA58B90E49A2
:1032140040F27D330D4A0E4803F004F940F27D314B
:103224000A4803F0F6F802F01F0352090B6009D0B4
:10323400084940F28633054A054803F0F3F840F2A2
:103244008631EDE7044808BD6B7D0000387D000041
:10325400727100003673000000258450072808B5F9
:103264000BD90849084840F2AA33084A03F0DAF8AF
:1032740040F2AA31054803F0CCF8800000F58070D4
:1032840008BD00BF6E7F000072710000397F00002E
:1032940070B50D4C00F1080334F813300546DA0517
:1032A4000E4607D5C3F3432304EBC302526854F814
:1032B40033309847A3682BB131462846E268BDE80D
:1032C4007040184770BD00BF18000020034BC0B207
:1032D400083033F81000C0F3400070471800002095
:1032E400034BC0B2083033F81000C0F340107047ED
:1032F40018000020024611F0010004D003490B6AB3
:1033040013600B6203B90020704700BF002584508E
:1033140010B5194AC0B2083032F81030D9051DD59D
:10332400C3F3432123F4F85322F81030002002F1B0
:103334000E0434F8023F13F4807F03D0C3F3432315
:1033440099420BD001302028F3D100230B4842F8D6
:103354003130FFF78FFD0A4B984200D110BD094967
:1033640009484FF4DC73094A03F05CF84FF4DC714C
:10337400064803F04EF800BF18000020700000203B
:103384000000AD0BC67D000072710000787F000064
:103394002DE9F843002407460E4625464FF0010860
:1033A400A146B5420DD1124BD3F87C2132B1002293
:1033B400C3F87C21D3F87C3144F000442046BDE8B6
:1033C400F883E8B2FFF74AFFA0F58072920808FA82
:1033D40002F2174209D000F1A04303F550431968E3
:1033E40019B1C3F800901B6814430135D9E700BF35
:1033F40000D0005010B5044608460A46FFF770FF97
:10340400C0B10846FFF762FFA0B90D4BCAB208323B
:1034140033F812200123520B21689340C1F808337A
:10342400236803EB8203D3F8102522F00302C3F8C8
:10343400102510BD0021BDE81040104603F03CBA31
:1034440018000020F7B51A4ECDB2083536F81530FD
:103454000746DB070C4628D5FFF7CCFF2046FFF7CD
:103464003FFF50B136F815203B68520B03EB820343
:103474000022C3F81025C3F810252046FFF748FFA3
:10348400002301A826F815300194FFF7B9FE019B2B
:1034940000EB8300D0F80022064B134043F00203F4
:1034A400C0F80032044803B0F0BD0448FBE700BF95
:1034B40018000020F0F8FCFF0000AD0B0400AD0B79
:1034C4002DE9FF410C46116806461546E1B1204638
:1034D40003F001FA08BB0B46CDE900008DF80E009D
:1034E4008DF80F000DF10F020DF10E01204603F0CF
:1034F40096F94849E3B2083331F8132022F0020266
:1035040042F0010221F813206B687BB320461A783D
:103514005968FFF7DBFE10B1E9B13F4829E03D4FA0
:10352400E0B2083037F8103023F02003DB04DB0C62
:1035340027F8103079B1032AEFD86968D1F804E08C
:1035440031689EF800C0E64601EB8C01A2B9C1F8CF
:103554001025C1F810252F48E3B2083330F81310B2
:1035640021F01C0141EA820220F81320AB6833BB2E
:103574002A4804B0BDE8F081D1F8108543EA4C3301
:1035840028F00308C1F81085366843F0200306EBE1
:103594008C06D6F8101527F8103021F4473121F4A1
:1035A4004071C6F810152102D6F810E501F4F8515F
:1035B40041EA024141EA0E01C6F81015CBE7204664
:1035C400D3E90067FFF7A4FE002ED1D0114DD5E951
:1035D4000023964203D19F4201D1002209E0104802
:1035E4000DF10F01FFF726FC0C4B9842C1D19DF859
:1035F4000F20E4B205EBC20308345F6035F81430E1
:1036040045F8326043EA422343F4807325F81430CA
:10361400AEE700BF180000200400AD0B0000AD0BA6
:10362400700000202DE9FF4107460C461E4632B3C8
:103634000846FFF74BFE18B90846FFF751FE20BBBA
:10364400DFF8D080E5B2083538F8153013F01C0FD8
:1036540002D05378012B18D001238DF80F300023AA
:103664002046CDE900230DF10F01931C013203F034
:10367400D6F838F8153043F0030328F81530002E37
:1036840046D02046FFF722FE18B9234804B0BDE80F
:10369400F081002296F800E03B681E4DE1B203EB96
:1036A4008E030831C3F81025C3F8102535F811200E
:1036B4004FEA8E0822F02002D204D20C25F8112001
:1036C40096F801C0BCF1000F22D03868B6784044A7
:1036D400D0F810354FEA0C4C23F4981323F4F85324
:1036E400C0F81035230203F4F8530CF4403C3605BB
:1036F400D0F8107543EA0C0306F48016334342EA0B
:103704004E323B4342F02002C0F8103525F8112018
:103714000248BBE7180000200400AD0B0000AD0B0D
:10372400014BC3E9021270471800002008B55AB9CA
:103734000D490E4840F20D330D4A02F073FE40F27B
:103744000D310B4802F065FE0846FFF7C9FD40B194
:10375400084BC9B2083133F8113007485B0B1370BA
:1037640008BD0648FCE700BFF57F00007271000049
:10377400787F0000180000200000AD0B0400AD0BA2
:103784002DE9F0411F4B026806469A420BD01E49B0
:103794001E484FF448731E4A02F044FE4FF4487129
:1037A4001B4802F036FE1B4D95F860403CBBA0461A
:1037B4004022214605F1100003F011FA36682F6DFE
:1037C400A7420FD1002346F30730C6F87C31D6F860
:1037D4007C31FDF7FBFE01230F4885F86030AB65B3
:1037E400BDE8F081E0B2FFF739FDA0F580739B08D6
:1037F4001F2B04BF46F8008033580134E0E7074824
:10380400EEE700BF00D00050FF7F0000727100009F
:10381400787F0000180000200000AD0B0C00AD0BF9
:10382400034B93F86000003818BF0120704700BFB5
:10383400180000200148FFF71DBB00BF6C000020EA
:103844000148FFF7F7BA00BF6C0000202DE9F341EF
:10385400CBB21646334A083332F813200C4612F022
:103864001C0F0546C2F382010BD12F4940F2FA33F3
:103874002E4A2F4802F0D6FD40F2FA312B4802F0CE
:10388400C8FD0368D3F804030028A4BF4FF0004028
:10389400C3F804032046FFF723FD00B32046FFF7D7
:1038A40015FD0746D8B9540B2046FFF7D7FCD5F8C9
:1038B400008048F8007058F800302B6803EB84034C
:1038C400D3F8102542F00102C3F8102526B10123D4
:1038D4002A68A340C2F8043302B0BDE8F0814EB9AF
:1038E400144940F20E43114A114802F09BFD40F284
:1038F4000E41C3E7042911D0052911D001A8019470
:10390400FFF77EFC019A0369D34003F00103991C7D
:10391400204602B0BDE8F04102F0CEBF0321F7E734
:103924000221F5E718000020D47F0000787F000012
:1039340072710000368000002DE9F74F534B544F4D
:10394400D3F80403396DC0B240F00040FFF720FD06
:10395400051E18DA00236846F96D00934FF001083C
:10396400FFF7C8FC97F85C30DB0758D4396D4FF08B
:103974000040FFF70DFD6846F96DFFF7BBFC00281A
:10398400F0D125F000450124002D67D103B0BDE836
:10399400F08F94FAA4F4B4FA84F4E10804F108036F
:1039A40037F8139004F007021DF8013008FA02F208
:1039B40023EA020301A80DF801300194FFF720FC6B
:1039C400019B4FEA990B803350F82360C9F3820AB4
:1039D4001BF0040FD146C6F3014624D051462046BD
:1039E400FFF756FC01A80194FFF70AFC019BF6B20D
:1039F400803350F82330C3F301439E4207D10021A2
:103A0400204602F059FF3146204602F055FF01A836
:103A14000194FFF7F5FB019B08FA03F30362009C92
:103A2400002CB6D1A2E7022E0CD10321204602F0CD
:103A340043FF0AF00503012BE9D149462046FFF76D
:103A440027FCE4E70221204602F036FFBAF1030F17
:103A5400F3D0032EDBD1BAF1020FEDE795FAA5F30B
:103A6400B3FA83F304FA03F29B0003F1A04303F5D2
:103A74005043D3F81005D3F81015C0F30420C1F354
:103A8400014125EA0205FFF703FC7DE700D0005061
:103A94001800002008B50A4A0A4B93420ED90A4975
:103AA40018230A4A0A4802F0BDFC0A4802F0BAFC8C
:103AB4001821064802F0ADFC1433EEE7FCD308BD30
:103AC400A06C0000506C0000648000004180000085
:103AD400727100007C80000070B50446EFF311861B
:103AE400202383F31288BFF36F8F0E4B9D6802F07F
:103AF40018FF042C0CD10C4987230C4A0C4802F003
:103B040091FC0C4802F08EFC8721084802F081FCED
:103B140086F31188BFF36F8F2846BDE87040FDF728
:103B2400E3BC00BF54050020BD8000009B80000062
:103B340072710000DA80000038B5094B53F8204058
:103B4400013053F82050A54200D838BD636823B132
:103B5400204602F0E9FE0834F5E723689847FAE7BF
:103B6400CC700000012270B5384B032086B01A7067
:103B7400FFF7E2FF01F0ACFF02F0F2FE0420FFF7D2
:103B8400DBFF334C334DAC42264628D9324942231D
:103B9400324A334802F046FC324802F043FC4221E8
:103BA4002E4802F036FC54F80C3C059354F8103CB3
:103BB400049354F8143C039354F8183C029354F8B7
:103BC4001C3C019354F8203C009354E90A2354E923
:103BD4000C0100F081FB54F8303C5E65D3E7AE4243
:103BE40004F13004DFD301F079F8194C1E4EAC42D5
:103BF4001FD919496623194A194802F013FC1948B8
:103C040002F010FC6621CBE7D4E90A23B3F1FF3FAD
:103C140008BFB2F1FF3F05D052EA0301206803D187
:103C240002F0BCFE3034E2E73146183001F0B8FC53
:103C3400F8E7E9D301F0C0F802F057FF0B4A137B11
:103C440023F00103137306B070BD00BF9505002077
:103C5400A86E0000686F0000308100000F81000032
:103C6400727100007C800000056A00005803002087
:103C740008B50348034A0021121A02F06DFE08BD7C
:103C8400B8000020980500200023012270B586B0FA
:103C9400CDE904230F220193CDE9023214234FF41A
:103CA400A0720E4D0E4E03FB00550E4906EBC016D6
:103CB400044602FB00110C4B3046009500F00CFB4F
:103CC400737B2C7423F004037373084B013403EBEC
:103CD400C423EE606B6006B070BD00BF54050020C5
:103CE400D8020020981D0020D53D00009815002022
:103CF400BFB50020FFF720FF2D4B03F5006282F3D0
:103D0400088883F30A880024E0232A4D2A4E85F884
:103D14002230EC772C766C76AC7685F820406B6A92
:103D2400264F43F4E0236B6285F82340FDF7AAFB9A
:103D3400FDF7FEFC4FF0FF33AB62EB62FDF7B6FE1E
:103D4400FDF71AFD40F201131D4D2846AB81C5E96C
:103D5400184401F09FFEB560FFF79CFE0120FFF7B9
:103D6400EBFE0220174DFFF7E7FE01F0B5F8164B06
:103D740075610593012315494FF48062CDE903432E
:103D840028463B46CDE90144009400F0A5FA0646D6
:103D94006A7B284622F004026A7300F037FD20464D
:103DA400FFF772FF3A4631462846FDF79DFC00BFF7
:103DB4009815002000ED00E054050020693B000048
:103DC400D8030020580300205D810000D81E002085
:103DD40008B50D4B9B6893F90E30002B09DB2024AA
:103DE400EFF3118384F31288BFF36F8F02F0AEFBFD
:103DF400F6E7064906481B23064A02F013FB1B217B
:103E0400044802F006FB00BF540500208381000033
:103E1400727100006281000008B583684BB90B49D8
:103E24000B489B230B4A02F0FDFA9B21094802F040
:103E3400F0FAD0E9003213605A600023427BC0E9F3
:103E4400003322F002024273836008BDD681000071
:103E540072710000AB8100002DE9F04704460E4664
:103E640091469A469DF8207000F10805EFF31188F9
:103E7400202383F31288BFF36F8F284601F004FBDD
:103E840060B988234A4A4B494B4802F0CBFA294689
:103E94004A4802F0C7FA882145481BE0284601F049
:103EA40017FB07B16668EFF31183202282F31288AF
:103EB400BFF36F8F83F31188BFF36F8F63B94049EA
:103EC400B223404A3C4802F0ADFA3F4802F0AAFA55
:103ED400B2213C4802F09DFA234653F80C7F9F42DE
:103EE40014D09FB13846FFF797FF07F1180001F08F
:103EF4001DFC00233846BB67C7F8149000F086FC0D
:103F04002846414600F03EFE00201FE0BAF1000FB3
:103F14002FD00821002001F0C3FDC8B9284601F0C4
:103F2400C1FA68B940F23113214A2849224802F003
:103F340079FA2946264802F075FA40F23111ABE7C6
:103F440088F31188BFF36F8F6FF00B00BDE8F08723
:103F54000122C0F804900260016801F0030166B90F
:103F640022680A43026062682060002AC8D1606047
:103F7400C6E74846C9F800A0EEE73268032A0BD822
:103F84000160616811B9C4E90000B9E70A6802F088
:103F9400030202430A60EAE722F003020A430260D2
:103FA400326802F0030240EA02033360A8E700BF6C
:103FB400397800009278000072710000A778000040
:103FC400ED810000AB8100000582000066780000EE
:103FD4007D7800002DE9F743064690461F4600F120
:103FE4000805EFF31189202383F31288BFF36F8F41
:103FF400284601F049FA68B98823254A2549264804
:1040040002F010FA2946254802F00CFA88212048CB
:1040140002F0FFF9284601F05BFA3468FCB123682A
:10402400726823F00303944220464FF00101336089
:1040340008BF736002F095FC0446284601F032FA8A
:10404400E8B940F23113124A1549134802F0EAF96B
:104054002946144802F0E6F940F23111D7E758EA4C
:104064000703EAD049462846CDE9008706F10C0249
:1040740000F002FD38B90C4B9B685C6903E089F3DE
:104084001188BFF36F8F204603B0BDE8F08300BFF3
:10409400397800009278000072710000A77800005F
:1040A400667800007D7800005405002008B5836818
:1040B4004BB90B490B489B230B4A02F0B3F99B21E4
:1040C400094802F0A6F9D0E9003213605A600023CF
:1040D400427BC0E9003322F002024273836008BDD0
:1040E400D681000072710000AB81000070B50446F7
:1040F400EFF31186202585F31288BFF36F8F2F48C5
:1041040001F0C2F960B988232D4A2E492E4802F0E5
:1041140089F92A492D4802F085F98821284818E0B0
:10412400264801F0D5F9EFF3118385F31288BFF324
:104134006F8F83F31188BFF36F8F63B92449B22360
:10414400244A214802F06EF9234802F06BF9B221A7
:10415400204802F05EF92568AC4212D08DB12846A1
:10416400FFF7A4FF05F1180001F0E0FA0023284648
:10417400AB6700F04BFB3146BDE870400F4800F0E0
:1041840001BDD4E902329A4218BF01330B48A3603F
:1041940001F088F968B940F23113094A0F490A4815
:1041A40002F040F905490E4802F03CF940F23111A1
:1041B400B4E786F31188BFF36F8F70BD74050020D8
:1041C400397800009278000072710000A77800002E
:1041D400ED810000AB8100000582000066780000DC
:1041E4007D780000F7B5044616461D46EFF30583B7
:1041F4007BB152EA05030CD02D4988232D4A2E4861
:1042040002F010F92D4802F00DF98821294802F036
:1042140000F9EFF31187202383F31288BFF36F8F24
:10422400274801F031F960B98823264A26492248F3
:1042340002F0F8F82249254802F0F4F888212148D0
:10424400E5E71F4801F044F9A368D3B1013B1C48DA
:10425400A36001F027F968B940F23113194A1C49E7
:10426400154802F0DFF816491A4802F0DBF840F26C
:104274003111E4E787F31188BFF36F8F002003B097
:10428400F0BD56EA05030BD10D4801F00BF90028E7
:10429400E2D087F31188BFF36F8F6FF00F00EEE762
:1042A40022463946CDE90065054800F0E5FBE6E71E
:1042B400288200000882000072710000058200005C
:1042C400740500203978000092780000A778000077
:1042D400667800007D7800002DE9F04385B00F9DDD
:1042E40004460F2D0E46984637D1274B984538D1B2
:1042F40004F15803C4E91633109B002723730423E5
:104304000732A57322F0070506EB050949466373D6
:104314002046C4E90677A760E773FCF7F7FE0E9B17
:10432400073020F00700A066C4E9186502930D9BCE
:10433400A9EB000901930C9B4A460093314643467E
:104344002046FDF7B5F9114B67659B6803B1DB6E39
:104354004846E36605B0BDE8F08305F110031E2B63
:10436400C6D940F211230A4A0A490B4802F05AF806
:1043740029460A486FF00F030E2202F053F840F268
:104384001121034802F045F8D53D000054050020F2
:104394007682000099820000727100001983000087
:1043A40038B590F90D200146002A437B11DA03F059
:1043B4007F0343731B4B984209D11B491B4880233D
:1043C4001B4A02F02FF88021194802F022F802F06B
:1043D400E7FA184D2A4652F8184FAB68944200D0B9
:1043E40004B9EC688B4214D05BB91349C823134A4F
:1043F4000E4802F017F8124802F014F8C8210F48CA
:10440400E3E75A7BD20604D1DA897F2A01D9A2696B
:104414002AB1A34202D0204600F0AAFF23466B61D2
:1044240038BD00BFD80200206C8300007271000008
:104434004A83000054050020B98300008D830000E6
:104444000582000008B583684BB9094909489B23D4
:10445400094A01F0E7FF9B21074801F0DAFF02F067
:104464009FFA437B23F0020343730023836008BD58
:10447400D681000072710000AB81000070B590F924
:104484000D30427B002B54DBD10652D18369002BC3
:104494004FD162F07F024273274A904209D12749E3
:1044A40027487923274A01F0BDFF7921254801F0E7
:1044B400B0FF254C224652F8181F914218BF0B46F4
:1044C400E16923B9C0E900210860E0610CE090F9DA
:1044D4000E5093F90E60B54219D0AE4217DD5968FB
:1044E400C0E9003108605860A569954200D005B95B
:1044F400E568A3687BB91549C823154A104801F03B
:1045040091FF144801F08EFFC8211148CFE799426A
:10451400D8D01B68D5E75A7BD20604D1DA897F2A22
:1045240001D9AA6932B1AB4202D0284600F020FF7B
:10453400656170BD6361FCE7D80200206C830000F4
:10454400727100004A83000054050020B983000002
:104554008D830000058200002DE9F047B2F10008C8
:1045640014BF4FF0080A4FF0100A427B04461AEABF
:10457400020F0F4621D14AEA0203D2093AD143730A
:10458400BAF1080F48D04FF00009564E334653F89D
:10459400185F9D4200D005B9F568B368AB4202D0FC
:1045A400284600F0E5FEBAF1100F756160D1BFF343
:1045B4005F8F637B23F0600363734A4B9B68A34262
:1045C40078D1EFF30583002B74D1474800F06AFFDC
:1045D40000285CD140F26B13444A4549454801F038
:1045E40021FF4149444801F01DFF40F26B113F484F
:1045F40001F00FFF03F07F034373404B984208D14F
:104604003F4980233F4A3B4801F00CFF80213D484D
:10461400EEE702F0C5F9B3E7A36813B12046FFF74C
:1046240011FF04F1180001F081F8A56D04F158069A
:10463400AE4211D04FF0000975B12846FFF702FFD2
:1046440005F1180001F072F82846C5F87890FFF7D4
:1046540015FFA56DAE42EFD1224B9B689C4292D1CF
:10466400EFF30589B9F1000918BF4FF001098CE790
:10467400B9F1000F9BD040F20113234DAB8100230D
:104684002846C5E9183301F005FAB5608FE73846C6
:10469400FCF740FFB8F1000F22D01C494FF4F3732C
:1046A400184A144801F0BEFE194801F0BBFE4FF44D
:1046B400F371ACE70C4800F0F5FE68B940F2311331
:1046C4000A4A0B490B4801F0ADFE07490A4801F0BC
:1046D400A9FE40F231118AE787F31188BFF36F8F87
:1046E400BDE8F087540500207805002039780000E3
:1046F40066780000727100007D780000D802002006
:104704006C8300004A830000D8030020E08300008B
:10471400EB83000070B590F90D200146002A437B1D
:10472400324C10DA03F07F03A042437309D13049BD
:104734008023304A304801F075FE80212D4801F075
:1047440068FE02F02DF94B7BA14263F07F034B73AB
:1047540007D127497923274A274801F063FE7921A5
:10476400ECE7264C224652F8183FE069934208BF12
:10477400002323B9C1E900200160E1610CE091F953
:104784000E5093F90E60B5421BD0AE4219DD586845
:10479400C1E9003001605960A569A368954200D061
:1047A40005B9E5688B4218D07BB91549C823154A69
:1047B400114801F037FE144801F034FEC8211148B5
:1047C400BDE79842D6D01B68D3E75A7BD20604D102
:1047D400DA897F2A01D9AA692AB1AB4202D02846D4
:1047E40000F0C6FD2B46636170BD00BFD8020020F7
:1047F4006C8300004A83000072710000540500209D
:10480400B98300008D8300000582000038B504469A
:10481400EFF31185202383F31288BFF36F8F1748BA
:1048240000F032FE68B98823154A1649164801F08B
:10483400F9FD1249154801F0F5FD8821104801F0F1
:10484400E8FD0E4800F044FE2046FFF717FE0B4833
:1048540000F028FE68B940F23113094A0C490A48AD
:1048640001F0E0FD05490B4801F0DCFD40F2311197
:10487400E4E785F31188BFF36F8F38BD7805002016
:10488400397800009278000072710000A778000067
:10489400667800007D78000038B50446183000F0D2
:1048A40045FFEFF31185202383F31288BFF36F8F45
:1048B4001A4800F0E9FD68B98823194A19491A48C9
:1048C40001F0B0FD1549194801F0ACFD88211448E8
:1048D40001F09FFD114800F0FBFD627B12F0100215
:1048E40016D00E4800F0DEFD68B940F231130C4AD0
:1048F4000F490D4801F096FD08490E4801F092FD5C
:1049040040F23111E3E785F31188BFF36F8F38BDAF
:1049140029462046BDE83840FFF71EBE7805002032
:10492400397800009278000072710000A7780000C6
:10493400667800007D78000038B50446EFF31185F1
:10494400202383F31288BFF36F8F184800F09CFD77
:1049540068B98823164A1749174801F063FD1349BB
:10496400164801F05FFD8821114801F052FD0F48FF
:1049740000F0AEFDA36813B12046FFF763FD0B48BA
:1049840000F090FD68B940F23113094A0C490A4815
:1049940001F048FD05490B4801F044FD40F2311196
:1049A400E2E785F31188BFF36F8F38BD78050020E7
:1049B400397800009278000072710000A778000036
:1049C400667800007D78000070B504460D46EFF36C
:1049D4001186202383F31288BFF36F8F1F4800F0E2
:1049E40053FD68B988231E4A1E491F4801F01AFD69
:1049F4001A491E4801F016FD8821194801F009FDE5
:104A0400164800F065FD637B13F0280F0CD1A368F2
:104A140013B12046FFF716FD637BBDB903F0FB031A
:104A240020466373FFF72AFD0C4800F03BFD80B974
:104A340040F231130A4A0E490B4801F0F3FC0749CE
:104A44000C4801F0EFFC40F23111D6E703F0EB0320
:104A5400E6E786F31188BFF36F8F70BD78050020F9
:104A6400397800009278000072710000A778000085
:104A7400667800007D7800002DE9F047DFF8D4A0C7
:104A8400354D1746DDE90898DAF80820334BA8427B
:104A940004460E461A600BD13149324840F296233F
:104AA400314A01F0BFFC40F296212F4801F0B1FCDD
:104AB400EFF31183202383F31288BFF36F8F28460B
:104AC40000F0E2FC60B98823284A2949254801F00E
:104AD400A9FC2946274801F0A5FC88212348E5E7DD
:104AE400284600F0F5FCDAF808503946284601F06B
:104AF4005FFFB8F1FF3F08BFB9F1FF3F06D04A4658
:104B040043461D4905F1180000F04AFD204600F017
:104B1400C9FC68B9194940F26B13144A114801F0F1
:104B240081FC2146164801F07DFC40F26B11D5E76B
:104B3400094800F0B7FC40B9104940F26B130B4A26
:104B4400084801F06FFC0449ECE73046BDE8F04743
:104B5400FCF7E0BC54050020780500207C0500200B
:104B64000D840000727100004A830000397800004F
:104B740092780000A7780000056A000066780000BB
:104B84007D78000070B504460D46F9B9EFF305864B
:104B9400E6B91A4B5A699B689A4217D000F082FC16
:104BA40078B940F26B13164A1649174801F03AFCDB
:104BB4002146164801F036FC40F26B11104801F012
:104BC40028FC3046BDE87040FCF7A4BC204600F049
:104BD40069FC68B940F23113094A0A490A4801F0EC
:104BE40021FC2146094801F01DFC40F23111E5E7A2
:104BF40085F31188BFF36F8F70BD00BF540500208B
:104C04003978000066780000727100007D78000039
:104C140038B50446EFF31185202383F31288BFF3DC
:104C24006F8F1D4800F030FC68B988231B4A1C496B
:104C34001C4801F0F7FB18491B4801F0F3FB8821DD
:104C4400164801F0E6FB144800F042FC637B5A0767
:104C540016D4114800F026FC68B940F231130F4A0B
:104C64001249104801F0DEFB0B49114801F0DAFB50
:104C740040F23111E4E785F31188BFF36F8F38BD3B
:104C840023F0040320466373FFF7F8FB2946BDE8CD
:104C940038400148FFF776BF7805002039780000D6
:104CA4009278000072710000A77800006678000016
:104CB4007D780000034648B9EFF3058232B9064A0D
:104CC40051699268914201D0FCF724BC83F31188A6
:104CD400BFF36F8F704700BF5405002010B5EFF38A
:104CE4001184202383F31288BFF36F8F264800F0CA
:104CF400CBFB60B98823254A2549264801F092FB5D
:104D04002149254801F08EFB8821204810E01E48E7
:104D140000F0DEFBEFF3058363B120499123204AC1
:104D24001C4801F07FFB1F4801F07CFB91211C48CB
:104D340001F06FFB1C4B9A68D37B012B0AD11B49F2
:104D44009223174A134801F06DFB164801F06AFBE1
:104D54009221ECE7013BD3730B4800F0A3FB68B945
:104D640040F23113094A12490A4801F05BFB064933
:104D7400104801F057FB40F23111C6E784F3118863
:104D8400BFF36F8F10BD00BF780500203978000095
:104D94009278000072710000A77800004684000039
:104DA400AB810000058200005405002058840000F7
:104DB400667800007D78000070B5EFF3118620233B
:104DC40083F31288BFF36F8F374800F05DFB60B93F
:104DD4008823364A3649374801F024FB324936489D
:104DE40001F020FB8821314813E0344D2E4800F0B7
:104DF4006FFBAB68DA7B72B9314940F22733314A31
:104E04002C4801F00FFB304801F00CFB40F2273135
:104E14002C4801F0FEFAEFF3058161B12B494FF400
:104E24004A73284A234801F0FDFA274801F0FAFAA8
:104E34004FF44A71ECE70132DA732A4652F8184FFC
:104E4400944200D004B9EC685A7BD20604D1DA89C2
:104E54007F2A01D9A2692AB1A34202D0204600F0D8
:104E640087FA234610486B6100F01CFB68B940F2D6
:104E740031130E4A16490F4801F0D4FA0A4915486D
:104E840001F0D0FA40F23111ADE786F31188BFF397
:104E94006F8FEFF31180202383F31288BFF36F8F9A
:104EA400BDE87040FFF706BF7805002039780000A0
:104EB4009278000072710000A77800005405002069
:104EC400898400004A8300000582000046840000B3
:104ED400667800007D780000024B03F11802C3E9F4
:104EE4000622704754050020F8B5EFF305836BB133
:104EF400464940F23743464A464801F093FA464849
:104F040001F090FA40F23741414816E0EFF3118680
:104F1400202383F31288BFF36F8F404800F0B4FA64
:104F240068B988233E4A3F493A4801F07BFA3B4935
:104F34003D4801F077FA8821394801F06AFA3B4C80
:104F4400364800F0C5FAA0683949437B884203F02B
:104F54007F03437307D1374980232D4A2D4801F03D
:104F640061FA8021D0E701F01BFDA3685A7B8B42D4
:104F740062F07F025A7307D12E497923244A2548C7
:104F840001F050FA7921BFE7214651F8182FE06962
:104F94008A4208BF002222B9C3E900100360E3611A
:104FA4000CE093F90E5092F90E70BD4224D0AF423A
:104FB40022DD5068C3E9002003605360A5698D4277
:104FC40000D005B9E568A3689D4202D0284600F0E8
:104FD400CFF91248656100F065FA88B940F26B13A5
:104FE4000F4A15490B4801F01DFA0C49134801F00A
:104FF40019FA40F26B119FE78242CDD01268CAE7DA
:105004003046BDE8F840FCF785BA00BF468400008E
:105014004A830000727100000582000078050020B8
:105024003978000092780000A77800005405002029
:10503400D80200206C830000667800007D780000B0
:105044002DE9F04105460E46EFF305836BB13F4968
:1050540040F252433E4A3F4801F0E4F93E4801F031
:10506400E1F940F252413A4824E050EA010303D105
:10507400FFF73AFF002067E0821C71F1FF331BDB6E
:1050840001F0DFFC4419EFF31188202383F3128825
:10509400BFF36F8F314800F0F7F988B98823304A9D
:1050A40030492C4801F0BEF92C492F4801F0BAF9D7
:1050B40088212B4801F0ADF96FF00104241AE2E7CE
:1050C4002A4F264800F004FAB868294B1860FFF705
:1050D40067F9B8682A4633461830264900F060FA62
:1050E400BA681E48537B43F01003537300F0DAF997
:1050F40068B940F26B131A4A1F49164801F092F935
:1051040016491E4801F08EF940F26B11D1E7404672
:10511400FCF700FABB685B7BDB060CD5184940F250
:105124006E430B4A0B4801F07DF90B4801F07AF904
:1051340040F26E4197E701F084FC201A63EB03030D
:10514400012873F1000395DBBDE8F081468400007B
:105154004A83000072710000058200007805002077
:105164003978000092780000A778000054050020E8
:105174007C050020056A0000667800007D78000048
:10518400BA84000010B5EFF3058474B1134940F2FA
:105194007C43134A134801F045F9134801F042F9DE
:1051A40040F27C410E4801F034F9B1F1FF3F08BFF1
:1051B400B0F1FF3F06D10D4B9868FFF76DFB4FF040
:1051C400FF3010BDFFF73CFF4FF47A7247F6FF73D0
:1051D400C0FB0234D80B40EA4440F2E746840000A6
:1051E4004A8300007271000005820000540500200B
:1051F400014B9868704700BF5405002038B5044639
:10520400EFF31185202383F31288BFF36F8F2848AF
:1052140000F03AF968B98823264A2749274801F05B
:1052240001F92349264801F0FDF88821214801F0BD
:10523400F0F81F4800F04CF9237BDA0724D51C480A
:1052440000F030F968B940F231131A4A1D491B487D
:1052540001F0E8F816491C4801F0E4F840F2311175
:10526400E4E785F31188BFF36F8F40F27153174A57
:105274001749124801F0D6F82146164801F0D2F831
:1052840040F271511148D2E7637B1B0709D50848E6
:1052940000F008F90028D6D085F31188BFF36F8F8A
:1052A40038BD29462046BDE838400122FFF754B9ED
:1052B40078050020397800009278000072710000AF
:1052C400A7780000667800007D7800004A8300001B
:1052D40036730000FA84000008B568B10F4B984299
:1052E4000AD303F11802904206D21822C01AB0FB66
:1052F400F2F302FB13034BB109490A4838230A4A63
:1053040001F090F83821084801F083F80122074B96
:10531400C0105843064B1A5408BD00BF580400205F
:10532400418500007271000019850000ABAAAAAA89
:1053340096050020C3897F2B12D80A4B1B6863B1E2
:10534400094B90F90E201B689A4209DB437BDB066C
:1053540006D1064BC31A18BF012303F0010070479E
:105364000023FAE78405002080050020D8020020ED
:1053740070B50E4B0E4C1E7C054606EB460304EB43
:10538400C304204600F0D2F900220A4B28469A555D
:10539400FFF7D0FF48B1084B2046BDE870401A68BB
:1053A4000649013AD31700F0FBB870BD540500203C
:1053B400580400209605002084050020DD520000DA
:1053C40038B5EFF31185202383F31288BFF36F8F71
:1053D400234800F059F868B98823224A224923480F
:1053E40001F020F81E49224801F01CF888211D48CC
:1053F40001F00FF81A4800F06BF81E4B1E4A9C6827
:105404001068A04213D1FFF7B3FF154800F04AF823
:1054140008BB40F23113134A1849144801F002F84A
:105424000F49174800F0FEFF40F23111DFE7002179
:105434001B7C1160134AD35C002BE6D02046FFF797
:1054440079FF0028E1D0637BDB0602D12046FFF719
:1054540061F92046D7E785F31188BFF36F8F38BD14
:1054640078050020397800009278000072710000FD
:10547400A7780000540500207C0500206678000011
:105484007D78000096050020006838B1044B00F0D8
:1054940003001B7CC01A18BF01207047012070470D
:1054A40054050020002302680360EFF30581074BD5
:1054B40019B19968497BC90706D4197C98680843CF
:1054C400831A584258417047012070475405002000
:1054D400024B1A7C9B6813430360704754050020F9
:1054E40008B50648064A0749121A01F037FABDE81A
:1054F4000840054A0549064801F030BA000000207A
:10550400B8000020DC88000000000000DC880000F7
:1055140000000020034B1B680BB9FDF765BB00209E
:10552400704700BF8805002030B570B10B4B5B6835
:1055340098420AD0036843B1D3E90421D0E9044571
:10554400121941EB0501C3E90421D0E900321360CB
:105554005A600023C0E9003330BD00BF7C00002046
:1055640010B50E4B1C689C4204D1FFF7D3FF6FF0BB
:10557400004010BDFFF7CEFF002CF8D0D4E9043270
:105584001B1A62EBE072B3F1004F72F10001EEDA24
:10559400002AACBF18460020EBE700BF7C000020C7
:1055A400B3F1FF3F08BFB2F1FF3F2DE9F0470446D6
:1055B40092461D4600F09D80066866B14E496E23F2
:1055C4004E4A4F4800F02EFF4E4800F02BFF6E214C
:1055D4004A4800F01EFF8160EFF31187202383F314
:1055E4001288BFF36F8F4848FFF74EFF60B98823D6
:1055F400464A4749424800F015FF4349454800F0F0
:1056040011FF88214148E4E73F48FFF761FFBAF101
:10561400FF3F75F1FF3323DA6FF001033E49D1E90F
:1056240000209B1A4FF0FF3262EB0000B3EB0A0339
:1056340060EB0500012B70F1000201DA0123304612
:10564400C4E90430354B1A68D3F804C09A4218BF31
:10565400164686B9C4E9003CCCF800405C601CE006
:10566400FFF758FF1AF1010845F1000518EB000394
:1056740045EBE070E4E7D6E90415D4E904208A4256
:1056840070EB050E28DA891A726865EB0005C6E925
:105694000415C4E90062146074601A689A4209D05F
:1056A400944207D11E4B1C6824B9FFF759FF2146C9
:1056B400FDF774FA1448FFF7F5FEB0B940F2311360
:1056C400124A18490E4800F0ADFE0F49164800F082
:1056D400A9FE40F2311195E7521A60EB05006645C8
:1056E400C4E90420B6D03668B3E787F31188BFF362
:1056F4006F8FBDE8F08700BF16870000F2860000B8
:1057040072710000058200008C05002039780000C9
:1057140092780000A7780000700400207C0000202C
:1057240088050020667800007D78000038B50446BE
:10573400EFF31185202383F31288BFF36F8F1B4887
:10574400FFF7A2FE68B98823194A1A491A4800F0DB
:1057540069FE1649194800F065FE8821144800F0D6
:1057640058FE1248FFF7B4FE2368ABB12046FFF79A
:10577400DBFE00240D48FFF795FE80B940F231139B
:105784000B4A0F490C4800F04DFE08490D4800F043
:1057940049FE40F23111E1E76FF01504EAE785F3C1
:1057A4001188BFF36F8F204638BD00BF8C050020E1
:1057B400397800009278000072710000A778000028
:1057C400667800007D7800002DE9F84F0446EFF379
:1057D4001188202383F31288BFF36F8F4748FFF7A4
:1057E40053FE68B98823464A4649474800F01AFEE2
:1057F4004249464800F016FE8821414800F009FE5F
:10580400DFF80C91DFF80CB13C48FFF761FECBF8F0
:105814000040D9F8004000264C4508BF002400276A
:10582400DFF8F4A0DBF80030DAE90021002C4AD0DC
:10583400D4E904504FEAE37CAB427CEB000E05DA7A
:10584400ED1A60EB0C00C4E904503CE0AA1841EBEB
:10585400E5712046C4E90467CAE90021FFF764FE44
:105864002648FFF71FFE68B940F23113244A2B493A
:10587400254800F0D7FD2149294800F0D3FD40F226
:105884003111BAE788F31188BFF36F8F2046A368FC
:105894009847EFF31188202383F31288BFF36F8FA7
:1058A4001648FFF7F1FD00289CD01448FFF710FEBE
:1058B400DBF80030D9F800405B1B4C45CBF80030D6
:1058C400B0D1DAE9002100249A1841EBE371CAE966
:1058D4000021CBF80040FFF743FE2146FDF75EF9B7
:1058E4000648FFF7DFFD0028BED088F31188BFF318
:1058F4006F8FBDE8F84FFFF763BD00BF8C05002034
:10590400397800009278000072710000A7780000D6
:105914007C000020880500207004002066780000C8
:105924007D78000070B5EFF31186202383F312888D
:10593400BFF36F8F1A48FFF7A7FD68B98823194A88
:1059440019491A4800F06EFD1549194800F06AFD1E
:105954008821144800F05DFD1148FFF7B9FDFFF7F9
:10596400D9FD144AD2E90045041945EBE0750C4809
:10597400FFF798FD68B940F231130A4A0E490B4803
:1059840000F050FD06490D4800F04CFD40F2311185
:10599400DFE786F31188BFF36F8F2046294670BD79
:1059A4008C050020397800009278000072710000A4
:1059B400A778000070040020667800007D7800005D
:1059C40004322DE9734306460D4620D24FF00008F9
:1059D4004FF0000941F00401CDE9008900F0A6F878
:1059E4000446A0B144F8046B95B16B1E1C420FD061
:1059F4002523094A09490A4800F014FD21460948AB
:105A04002A4600F00FFD2521034800F002FD002482
:105A1400204602B0BDE87083368700005A87000034
:105A2400727100008C87000003280A4608B501D96A
:105A340083070CD010494323104A114800F0F2FCAC
:105A4400104800F0EFFC43210C4800F0E2FC431E38
:105A540003420AD00C494723084A094800F0E2FCF3
:105A64000A4800F0DFFC4721EEE70146BDE80840A4
:105A74000748FFF7A5BF00BFB487000036870000C2
:105A840072710000F1870000A0760000BB76000070
:105A94008C000020014BC366704700BF8C000020BF
:105AA40038B504460D4600F073FF20B9064B9B68D9
:105AB400DB6E0BB938BD054B2A4621461846BDE8B6
:105AC4003840FFF77DBF00BF540500208C00002044
:105AD400014800F091BC00BF1E88000038B50D4C91
